:020000040800F2
:1000000000500020D5180008251500082D150008FF
:10001000351500083D1500084515000800000000D2
:100020000000000000000000000000004D15000866
:10003000591500080000000065150008711500083A
:100040001D1900081D1900081D1900081D190008B8
:100050001D1900081D1900081D1900081D190008A8
:100060001D1900081D1900081D1900081D19000898
:100070001D1900081D1900081D1900081D19000888
:100080001D1900081D1900081D1900081D19000878
:100090001D1900081D1900081D1900081D19000868
:1000A0001D1900081D1900081D1900081D19000858
:1000B0007D1500081D1900081D1900081D190008EC
:1000C0001D1900081D1900081D1900081D19000838
:1000D0001D1900081D1900081D1900081D19000828
:1000E0001D1900081D1900081D1900080000000056
:1000F0000000000000000000000000000000000000
:0C01000000000000000000005FF808F1A3
:10010C0010B5054C237833B9044B13B10448AFF345
:10011C0000800123237010BD880000200000000027
:10012C007442000808B5034B1BB103490348AFF3F5
:10013C00008008BD000000008C0000207442000804
:10014C0080B500AF284B1B780D2B38D00D2B47DC1E
:10015C000B2B02D00C2B21D042E0244B1B68234AE2
:10016C0092881146184601F01CFF204B9B681F4AD1
:10017C0092891146184601F014FF1D4B1B681C4A4E
:10018C0092881146184601F00CFF194B9B68184ACF
:10019C0092891146184601F004FF22E0134B9B682C
:1001AC00124A92891146184601F0FBFE104B9B68CF
:1001BC000F4A92891146184601F0F3FE11E00B4BE1
:1001CC001B680A4A92881146184601F0EAFE084B51
:1001DC001B68074A92881146184601F0E2FE00E0BF
:1001EC0000BF00BF80BD00BF280000200800002019
:1001FC001800002080B582B000AF786039607B6851
:10020C00022B2BD07B68022B39DC7B68002B03D0B4
:10021C007B68012B11D032E03C4B1B683B4A918828
:10022C000122184601F0A5FE384B9B68374A91898C
:10023C000122184601F09DFE22E0344B1B68334A24
:10024C0091880022184601F094FE304B9B682F4A8F
:10025C0091890122184601F08CFE11E02B4B1B6892
:10026C002A4A91880122184601F083FE274B9B688D
:10027C00264A91890022184601F07BFE00E000BF5F
:10028C003B68022B2BD03B68022B39DC3B68002BE4
:10029C0003D03B68012B11D032E01D4B1B681C4A6C
:1002AC0091880122184601F064FE194B9B68184A8C
:1002BC0091890122184601F05CFE22E0144B1B6868
:1002CC00134A91880022184601F053FE104B9B688C
:1002DC000F4A91890122184601F04BFE11E00C4B9C
:1002EC001B680B4A91880122184601F042FE084B0C
:1002FC009B68074A91890022184601F03AFE00E0FB
:10030C0000BF00BF0837BD4680BD00BF08000020FD
:10031C001800002080B500AF8B4B1B780A3B042BD8
:10032C0000F26D8101A252F823F000BF4D030008CA
:10033C000B040008C1040008790500087F030008BD
:10034C00012000F0B3F9012000F0CAF9022000F0FE
:10035C00ADF9022000F0C4F9002000F0A7F9034623
:10036C00002B00F04E8101F061F9774B0E221A70D0
:10037C0047E1022000F09AF9022000F0B1F90120C7
:10038C0000F094F90346002B0CD0704B1B78013312
:10039C00DAB26E4B1A706D4B1B78022B02D96B4B79
:1003AC0000221A70012000F09BF90346002B0CD0A0
:1003BC00674B1B780133DAB2654B1A70644B1B78B0
:1003CC00022B02D9624B00221A70604B1B781A4622
:1003DC005F4B1B7819461046FFF70CFF002000F00E
:1003EC0065F90346002B00F00E8101F01FF9594B03
:1003FC001A88594B1A80544B0B221A7003E10120B6
:10040C0000F054F90346002B05D0534B1B880133E5
:10041C009AB2514B1A80012000F062F90346002B6E
:10042C0005D04D4B1B88013B9AB24B4B1A800220D6
:10043C0000F03CF90346002B05D0474B1B881946AE
:10044C00002001F0DBF8444B1A88444B1A80424BD5
:10045C001A88434B1A80002000F028F90346002B21
:10046C0000F0D3803F4B1B683E4A9188002218460F
:10047C0001F07FFD3B4B9B683A4A9189002218465C
:10048C0001F077FD384B1B68374A918800221846DB
:10049C0001F06FFD344B9B68334A9189002218465A
:1004AC0001F067FD2B4B5A882B4B1A80264B0C22E4
:1004BC001A70AAE0012000F0F9F80346002B05D0D1
:1004CC00254B1B8801339AB2234B1A80012000F074
:1004DC0007F90346002B05D01F4B1B88013B9AB232
:1004EC001D4B1A80022000F0E1F80346002B05D0CA
:1004FC00194B1B881946012001F080F8164B1A88FD
:10050C00164B1A80144B1A88154B1A80002000F0D9
:10051C00CDF80346002B7AD0124B9B68114A918977
:10052C000022184601F025FD0F4B9B680E4A91895D
:10053C000022184601F01DFD064B9A88064B1A80C6
:10054C00014B0D221A7062E028000020A40000204C
:10055C00A500002000000020A6000020D8000020EC
:10056C00DA0000200800002018000020012000F014
:10057C009DF80346002B05D0274B1B8801339AB2FC
:10058C00254B1A80012000F0ABF80346002B05D058
:10059C00214B1B88013B9AB21F4B1A80022000F0A2
:1005AC0085F80346002B05D01B4B1B8819460220EF
:1005BC0001F024F8184B1A88184B1A80164B1A881D
:1005CC00174B1A80002000F071F80346002B20D046
:1005DC00144B1B68134A91880022184601F0C9FC81
:1005EC00114B1B68104A91880022184601F0C1FC7F
:1005FC000E4B0A221A700E4B00221A7009E000BF33
:10060C0008E000BF06E000BF04E000BF02E000BF4E
:10061C0000E000BF00BF80BDA6000020D800002075
:10062C00DA0000200800002018000020280000201C
:10063C00D600002080B582B000AF78607B68022BBA
:10064C0020D07B68022B28DC7B68002B03D07B68D6
:10065C00012B0BD021E01021124801F073FC034652
:10066C001946114A7B6822F8331017E04FF4806169
:10067C000C4801F067FC034619460B4A7B6822F8CC
:10068C0033100BE04021074801F05CFC034619468F
:10069C00054A7B6822F8331000E000BF00BF083722
:1006AC00BD4680BD000C0140A800002080B483B082
:1006BC0000AF7860094A7B6832F81330012B06D101
:1006CC00064A7B68002122F81310012300E0002366
:1006DC0018460C37BD4680BC704700BFD0000020C8
:1006EC0080B483B000AF7860094A7B6832F813306D
:1006FC00012B06D1064A7B68002122F81310012336
:10070C0000E0002318460C37BD4680BC704700BF84
:10071C00C800002080B582B000AF00237B6017E0DA
:10072C00484A7B68DB0013445988464A7B68DB00E7
:10073C0013440A469A80434A7B6832F83310414A84
:10074C007B68DB0013440A465A807B6801337B606C
:10075C007B68022BE4DD00233B606BE03868FFF71D
:10076C0069FF384A3B68DB0013445A8835493B68BB
:10077C0031F833309A425AD1324A3B68DB00134489
:10078C009A8830493B68DB000B445B889A424ED117
:10079C002C4A3B68DB0013449A882A493B68DB00EF
:1007AC000B44DB889A421CD0264A3B68DB0013447E
:1007BC009988244A3B68DB0013440A46DA80214AB4
:1007CC003B68DB001344DB88002B30D11E4A3B68AE
:1007DC00322122F813101D4A3B68012122F8131014
:1007EC0025E0194A3B6832F81330013B99B2164A9E
:1007FC003B6822F81310144A3B6832F81330002B74
:10080C0015D1114A3B68322122F813100D4A3B686E
:10081C00DB001344DB88002B09D10C4A3B68002118
:10082C0022F813100A4A3B68012122F813103B6886
:10083C0001333B603B68022B90DD00BF00BF0837E3
:10084C00BD4680BDA8000020C0000020D0000020C4
:10085C00C800002080B582B000AF022000F048FD37
:10086C000346002B00F06F812821022000F050FD80
:10087C0000237B600CE0B54A7B68134400221A709D
:10088C00B34A7B68134400221A707B6801337B6087
:10089C007B68312BEFDDAF4B1B780E2B1CD100216D
:1008AC00012000F020FAAC4800F008FA00210020EA
:1008BC0000F019FAA94800F001FA0B21012000F010
:1008CC0012FAA74800F0FAF90C21002000F00BFAFC
:1008DC00A44800F0F3F936E19E4B1B780B2B23D187
:1008EC000021002000F0FFF99F4B1B881A469F49FE
:1008FC00964803F0B7F8954800F0E0F90B21012079
:10090C0000F0F1F9964800F0D9F90C21002000F024
:10091C00EAF9974800F0D2F90021012000F0E3F940
:10092C00944800F0CBF90EE18A4B1B780C2B23D1A9
:10093C000021002000F0D7F98B4B1B881A468B49FD
:10094C00824803F08FF8814800F0B8F90B210120A0
:10095C0000F0C9F9824800F0B1F90C21002000F038
:10096C00C2F9854800F0AAF90021012000F0BBF97A
:10097C00824800F0A3F9E6E0764B1B780D2B23D1CF
:10098C000021002000F0AFF9774B1B881A467749FD
:10099C006E4803F067F86D4800F090F90B210120C8
:1009AC0000F0A1F96E4800F089F90C21002000F04C
:1009BC009AF9734800F082F90021012000F093F9B4
:1009CC00704800F07BF9BEE06F4B1B78023B032BA9
:1009DC0000F2B88001A252F823F000BFF909000818
:1009EC004F0A0008A50A0008FB0A00080021002095
:1009FC0000F079F95C4B1B881A466449534803F0A4
:100A0C0031F8524800F05AF90021012000F06BF93E
:100A1C005F4B1B881A465F494D4803F023F84C483E
:100A2C0000F04CF90B21012000F05DF94C4800F06E
:100A3C0045F90C21002000F056F9574800F03EF91A
:100A4C0081E00021002000F04EF9474B1B881A462C
:100A5C0052493E4803F006F83C4800F02FF90021BB
:100A6C00012000F040F94A4B1B881A464949384886
:100A7C0002F0F8FF364800F021F90B21012000F0BC
:100A8C0032F9374800F01AF90C21002000F02BF94C
:100A9C00414800F013F956E00021002000F023F942
:100AAC00314B1B881A463B49284802F0DBFF27488C
:100ABC0000F004F90021012000F015F9344B1B88DB
:100ACC001A463249224802F0CDFF214800F0F6F8D0
:100ADC000B21012000F007F9214800F0EFF80C2160
:100AEC00002000F000F92C4800F0E8F82BE0002181
:100AFC00002000F0F8F81C4B1B881A4625491348B7
:100B0C0002F0B0FF114800F0D9F80021012000F0EC
:100B1C00EAF81F4B1B881A4620490D4802F0A2FF29
:100B2C000B4800F0CBF80B21012000F0DCF80C484E
:100B3C0000F0C4F80C21002000F0D5F8164800F0A5
:100B4C00BDF800E000BF0837BD4680BDDC000020CA
:100B5C0010010020280000208C4200089842000858
:100B6C00A4420008AC420008D8000020B0420008A3
:100B7C00C0420008C4420008D0420008D442000819
:100B8C00E0420008E4420008D6000020F0420008D1
:100B9C00DA000020FC420008084300080C4300085F
:100BAC0080B586B002AF0346FB71FB7923F00F03CF
:100BBC00FB73FB791B01BB73FB7B43F00C03DBB2B8
:100BCC003B72FB7B43F00803DBB27B72BB7B43F0D5
:100BDC000C03DBB2BB72BB7B43F00803DBB2FB72D2
:100BEC0007F108026423009304234221034801F017
:100BFC0035FB00BF1037BD4680BD00BF440100204F
:100C0C0080B586B002AF0346FB71FB7923F00F036E
:100C1C00FB73FB791B01BB73FB7B43F00D03DBB256
:100C2C003B72FB7B43F00903DBB27B72BB7B43F073
:100C3C000D03DBB2BB72BB7B43F00903DBB2FB726F
:100C4C0007F108026423009304234221034801F0B6
:100C5C0005FB00BF1037BD4680BD00BF440100201E
:100C6C0080B500AF3320FFF79BFF3220FFF798FFD2
:100C7C00322000F0B1FE2820FFF792FF322000F066
:100C8C00ABFE0120FFF78CFF322000F0A5FE062002
:100C9C00FFF786FF322000F09FFE0C20FFF780FF4D
:100CAC00322000F099FE0220FFF77AFF322000F08C
:100CBC0093FE8020FFF774FF00BF80BD80B582B02B
:100CCC0000AF786006E07B685A1C7A601B78184687
:100CDC00FFF796FF7B681B78002BF4D100BF00BF99
:100CEC000837BD4680BD80B584B000AF78603960F0
:100CFC007B68012B08D17B68DAB23B68DBB213440A
:100D0C00DBB27F33FB7308E03B68DBB24033DBB212
:100D1C005BB263F07F035BB2FB73FB7B1846FFF7A0
:100D2C003FFF00BF1037BD4680BD000080B500AF4F
:100D3C0000F0F0FD00F022F800F0D6F800F088F892
:100D4C0000F058F800F0C6FAFFF78AFF00F050F9EF
:100D5C0032220021074800F06BF96422002106487A
:100D6C0000F066F9FFF7D6FA00F044FAFFF772FDCF
:100D7C0000BFF7E74D0100083517000880B590B0AB
:100D8C0000AF07F1180328220021184602F08AFE52
:100D9C003B1D00221A605A609A60DA601A610223C5
:100DAC00BB610123BB621023FB6200237B6307F151
:100DBC001803184601F0AAFD0346002B01D000F0E1
:100DCC00F5F80F237B600023BB600023FB6000233E
:100DDC003B6100237B613B1D0021184602F018F893
:100DEC000346002B01D000F0E1F800BF4037BD46B0
:100DFC0080BD000080B500AF124B134A1A60114B36
:100E0C00124A5A600F4B00229A600E4B0022DA6095
:100E1C000C4B4FF480421A610A4B00225A61094B69
:100E2C0000229A61074B0022DA61064B00221A62FB
:100E3C00044801F0CFF80346002B01D000F0B6F8BF
:100E4C0000BF80BD4401002000540040A08601007A
:100E5C0080B586B000AF07F1080300221A605A6013
:100E6C009A60DA603B4600221A605A601D4B4FF0C4
:100E7C0080421A601B4B41F63F725A60194B00229C
:100E8C009A60184B0922DA60164B00221A61154B36
:100E9C0000229A61134802F035F90346002B01D069
:100EAC0000F084F84FF48053BB6007F10803194637
:100EBC000C4802F0B9FA0346002B01D000F076F88A
:100ECC0000233B6000237B603B461946054802F03B
:100EDC009BFC0346002B01D000F068F800BF1837CC
:100EEC00BD4680BD9801002080B586B000AF07F1EB
:100EFC00080300221A605A609A60DA60284B9B69DA
:100F0C00274A43F004039361254B9B6903F00403C8
:100F1C007B607B68224B9B69214A43F008039361F9
:100F2C001F4B9B6903F008033B603B6800224FF4A6
:100F3C0048711C4801F01DF8002228211A4801F0C4
:100F4C0018F84FF44873BB600123FB6000233B612E
:100F5C0002237B6107F108031946124800F06EFE6C
:100F6C004FF48A63BB600023FB6002233B6107F1F3
:100F7C00080319460C4800F061FE2823BB600123CE
:100F8C00FB6000233B6102237B6107F108031946D8
:100F9C00054800F053FE00BF1837BD4680BD00BFAA
:100FAC000010024000080140000C014080B400AF6A
:100FBC0072B600BF00BFFDE780B586B000AFF86029
:100FCC00B9607A60142002F08FFC03467B617B6968
:100FDC00BA689A607B697A68DA607B69FA681A6029
:100FEC007B6900221A617B6918461837BD4680BDA3
:100FFC0080B500AF00F06EF9102002F075FC0346CE
:10100C001A460A4B1A60094B1B6800221A60074BE0
:10101C001B6800225A60054B1B6800229A60034B28
:10102C001B680022DA6000BF80BD00BFE001002019
:10103C0080B588B000AFF860B9607A60594B1B6816
:10104C001B68002B19D17A68B968F868FFF7B4FFF0
:10105C003861544B1B683A691A60524B1B681B6809
:10106C003A691A614F4B1B68BA689A604D4B1B6802
:10107C005A6801325A60002390E04A4B1B681B6887
:10108C001B69FB61FB699B68BA689A421AD87A683B
:10109C00B968F868FFF790FF38613B69FA691A6123
:1010AC00404B1B681B683A691A61FB699A68BB68FC
:1010BC00D21AFB699A603B4B1B685A6801325A6022
:1010CC0000236BE0374B1B689B68BA689A4226D3A7
:1010DC00344B1B689B68BA68D31A7A681946F8684F
:1010EC00FFF76AFF38613B69FA691A612D4B1B687F
:1010FC001B683A691A612B4B1B683A691A60294BB9
:10110C001B68BA689A60274B1B685A6801325A6090
:10111C00244B1B685B68DBB2013BDBB23EE0002377
:10112C00BB610023FB7532E0FB699B68BA69134411
:10113C00BB61FB691B699A68BB691344BA689A4224
:10114C001FD2BA68BB69D31A7A681946F868FFF7D8
:10115C0033FF3861FB691A693B691A61FB693A69AB
:10116C001A613B691B6999683B699A683B691B6901
:10117C008A1A9A600B4B1B685A6801325A60FB7DC5
:10118C000CE0FB691B69FB61FB7D0133FB75054BB7
:10119C001B681B68FA699A42C6D11423184620377B
:1011AC00BD4680BDE001002080B400AF104B1B6831
:1011BC00002B18D00E4B1B681B68002B13D00C4B4C
:1011CC001B681B681B699B68002B06D0084B1B68AF
:1011DC001B681B699A68013A9A60054B1B689A68F0
:1011EC00013A9A6000E000BFBD4680BC704700BF6A
:1011FC00E001002080B584B000AF154B1B68002BBC
:10120C0022D0134B1B681B68002B1DD0104B1B6886
:10121C001B681B69FB60FB689B68002B15D1FB6886
:10122C001B689847FB68DB68BB60FB681B687B60CE
:10123C00002000F00FF8BB68002B06D0BA68B96824
:10124C007868FFF7F5FE00E000BF1037BD4680BDA3
:10125C00E001002080B586B000AF0346FB71FA793F
:10126C001B4B1B685B689A422DD2194B1B681B6881
:10127C007B617B691B697A699A4207D1144B1B68A5
:10128C0000221A60786902F037FB1DE00023FB7422
:10129C0005E07B691B697B61FB7C0133FB74FA7C89
:1012AC00FB799A42F5D37B691B69FB60FB681A6971
:1012BC007B691A61F86802F01FFB054B1B685A68C2
:1012CC00013A5A6000E000BF1837BD4680BD00BF30
:1012DC00E001002080B500AF044801F063FF282135
:1012EC00022000F015F800BF80BD00BF980100205F
:1012FC0080B483B000AF0346FB71FB79034AD35C27
:10130C0018460C37BD4680BC704700BFE401002076
:10131C0080B483B000AF03460A46FB711346BB8012
:10132C00BB88094AA2FB0323DB089AB2FB7911465E
:10133C00064A42F82310FB79054A0021D15400BF1C
:10134C000C37BD4680BC7047CDCCCCCCF001002016
:10135C00E401002080B483B000AF0023FB7114E0E3
:10136C00FB790E4A52F82320013A0C4941F823200C
:10137C00FB790A4A52F82330002B03DCFB79084A2C
:10138C000121D154FB790133FB71FB79092BE7D98E
:10139C0000BF00BF0C37BD4680BC7047F001002079
:1013AC00E401002080B582B000AF78607B681B68D8
:1013BC00B3F1804F05D1FFF7CDFFFFF7ABF9FFF786
:1013CC00F3FE00BF0837BD4680BD000080B485B079
:1013DC0000AF154B9B69144A43F001039361124B08
:1013EC009B6903F00103BB60BB680F4BDB690E4AC2
:1013FC0043F08053D3610C4BDB6903F080537B606B
:10140C007B680A4B5B68FB60FB6823F0E063FB6066
:10141C00FB6843F00073FB60044AFB68536000BF39
:10142C001437BD4680BC70470010024000000140DC
:10143C0080B58AB000AF786007F1140300221A60FF
:10144C005A609A60DA607B681B681D4A934232D1FD
:10145C001C4B9B691B4A43F008039361194B9B6916
:10146C0003F008033B613B694FF440737B6112232B
:10147C00BB6103233B6207F114031946124800F0C9
:10148C00DDFB124B5B687B627B6A43F0E0637B6243
:10149C007B6A43F002037B620C4A7B6A5360094B04
:1014AC00DB69084A43F40013D361064BDB6903F490
:1014BC000013FB60FB6800BF2837BD4680BD00BF32
:1014CC000054004000100240000C0140000001409C
:1014DC0080B584B000AF78607B681B68B3F1804F37
:1014EC0013D10C4BDB690B4A43F00103D361094B5D
:1014FC00DB6903F00103FB60FB68002200211C2068
:10150C0000F065FB1C2000F07EFB00BF1037BD46D1
:10151C0080BD00BF0010024080B400AF00BFFDE7EB
:10152C0080B400AF00BFFDE780B400AF00BFFDE7A3
:10153C0080B400AF00BFFDE780B400AF00BFFDE793
:10154C0080B400AF00BFBD4680BC704780B400AF14
:10155C0000BFBD4680BC704780B400AF00BFBD4625
:10156C0080BC704780B500AF00F01AFA00BF80BD98
:10157C0080B500AF024801F067FE00BF80BD00BF20
:10158C009801002080B586B000AF7860144A154BE6
:10159C00D31A7B617B693B61134B1B68002B02D117
:1015AC00114B124A1A60104B1A687B6813443A6943
:1015BC009A4207D202F08EFA03460C221A604FF0C0
:1015CC00FF3309E0084B1B68FB60074B1A687B680C
:1015DC001344054A1360FB6818461837BD4680BD96
:1015EC0000500020000400001802002068030020B6
:1015FC0080B400AF00BFBD4680BC704780B483B0E0
:10160C0000AF03460A46FB711346BB80FB79022BE5
:10161C0004D8FB790449BA8821F8132000BF0C3791
:10162C00BD4680BC704700BF0000002080B582B072
:10163C0000AF0023FB711CE0FB79124A52F8330017
:10164C00FB79104ADB0013449B880022194600F0FA
:10165C0090FCFB790C4A52F83300FB790A4ADB0008
:10166C0013449B880022194600F083FCFB7901335C
:10167C00FB71FB79012BDFD900BF00BF0837BD46DA
:10168C0080BD00BF080000201800002080B582B08B
:10169C0000AF78600B46FB70FB78022B19D0022B45
:1016AC003DDC002B02D0012B26D038E07B6818687B
:1016BC007B689B880122194600F05BFC7B68083331
:1016CC0018687B6808339B880122194600F051FC8E
:1016DC0026E07B6818687B689B880122194600F01D
:1016EC0048FC7B68083318687B6808339B880022A9
:1016FC00194600F03EFC13E07B6818687B689B88F9
:10170C000022194600F035FC7B68083318687B68AA
:10171C0008339B880122194600F02BFC00E000BF27
:10172C0000BF0837BD4680BD80B500AF5F4B1B784E
:10173C000A2B40F0B7805E4B1B78052B00F2B4806F
:10174C0001A252F823F000BF6D170008B51800086D
:10175C0087170008C71700080F1800084F18000853
:10176C00FFF764FF524B02221A70524B9A88524B6D
:10177C001A80504B1A88514B1A8002215048FFF79F
:10178C0085FF00214F48FFF781FF4B4B1B88002B37
:10179C000CD0494B1B88013B9AB2474B1A80474BE4
:1017AC001B88013B9AB2454B1A807EE0414B5A880C
:1017BC00414B1A803E4B03221A7001214048FFF71F
:1017CC0065FF00213F48FFF761FF3B4B1B88002B57
:1017DC000CD0394B1B88013B9AB2374B1A80374BD4
:1017EC001B88013B9AB2354B1A805EE0314B1A884C
:1017FC00314B1A802F4B9A88304B1A802C4B042279
:10180C001A7000212E48FFF741FF02212D48FFF7E7
:10181C003DFF2A4B1B88002B0CD0274B1B88013B10
:10182C009AB2254B1A80254B1B88013B9AB2234B4D
:10183C001A803AE01F4B5A88204B1A801C4B052209
:10184C001A7000211E48FFF721FF01211D48FFF7E8
:10185C001DFF1A4B1B88002B0CD0174B1B88013B10
:10186C009AB2154B1A80154B1B88013B9AB2134B3D
:10187C001A801AE00F4B9B88013B9AB20E4B1A80D0
:10188C000C4B1B88013B9AB20C4B1A80084B022262
:10189C001A7002210A48FFF7F9FE00210948FFF7E8
:1018AC00F5FE01E000BF00E000BF80BD2800002075
:1018BC00D600002000000020D8000020DA00002014
:1018CC000800002018000020FFF792FE0B480C497E
:1018DC000C4A002302E0D458C4500433C4188C4280
:1018EC00F9D3094A094C002301E013600432A242E7
:1018FC00FBD302F0F5F8FFF719FA7047000000204F
:10190C008800002080430008880000206803002025
:10191C00FEE7000080B500AF084B1B68074A43F098
:10192C0010031360032000F047F90F2000F008F8B3
:10193C00FFF74CFD0023184680BD00BF002002407D
:10194C0080B582B000AF7860124B1A68124B1B78CE
:10195C0019464FF47A73B3FBF1F3B2FBF3F3184669
:10196C0000F05FF90346002B01D001230EE07B68E9
:10197C000F2B0AD8002279684FF0FF3000F027F9BE
:10198C00064A7B681360002300E0012318460837E1
:10199C00BD4680BD2C00002034000020300000200B
:1019AC0080B400AF054B1B781A46054B1B681344DB
:1019BC00034A136000BFBD4680BC70473400002052
:1019CC001C02002080B400AF024B1B681846BD46B9
:1019DC0080BC70471C02002080B584B000AF7860DA
:1019EC00FFF7F0FFB8607B68FB60FB68B3F1FF3F6B
:1019FC0005D00A4B1B781A46FB681344FB6000BFEA
:101A0C00FFF7E0FF0246BB68D31AFA689A42F7D890
:101A1C0000BF00BF1037BD4680BD00BF34000020A2
:101A2C0080B485B000AF78607B6803F00703FB607F
:101A3C000C4BDB68BB60BA684FF6FF031340BB600E
:101A4C00FB681A02BB68134343F0BF6343F40033D3
:101A5C00BB60044ABB68D36000BF1437BD4680BC72
:101A6C00704700BF00ED00E080B400AF044BDB68B2
:101A7C001B0A03F007031846BD4680BC704700BF25
:101A8C0000ED00E080B483B000AF0346FB7197F922
:101A9C000730002B0BDBFB7903F01F02064997F98B
:101AAC0007305B09012000FA02F241F8232000BF45
:101ABC000C37BD4680BC704700E100E080B483B0B9
:101ACC0000AF03463960FB7197F90730002B0ADB36
:101ADC003B68DAB20C4997F907301201D2B20B44C9
:101AEC0083F800230AE03B68DAB20849FB7903F07B
:101AFC000F03043B1201D2B20B441A7600BF0C3711
:101B0C00BD4680BC704700BF00E100E000ED00E086
:101B1C0080B489B000AFF860B9607A60FB6803F0FC
:101B2C000703FB61FB69C3F10703042B28BF0423E4
:101B3C00BB61FB690433062B02D9FB69033B00E054
:101B4C0000237B614FF0FF32BB6902FA03F3DA43E7
:101B5C00BB681A407B699A404FF0FF317B6901FAF0
:101B6C0003F3D9437B680B40134318462437BD4617
:101B7C0080BC704780B582B000AF78607B68013B59
:101B8C00B3F1807F01D301230FE00A4A7B68013B4C
:101B9C0053600F214FF0FF30FFF790FF054B0022F1
:101BAC009A60044B07221A60002318460837BD467A
:101BBC0080BD00BF10E000E080B582B000AF78605F
:101BCC007868FFF72DFF00BF0837BD4680BD80B594
:101BDC0086B000AF0346B9607A60FB7300237B616B
:101BEC00FFF742FF78617A68B9687869FFF790FF70
:101BFC00024697F90F3011461846FFF75FFF00BFFA
:101C0C001837BD4680BD80B582B000AF0346FB716E
:101C1C0097F907301846FFF735FF00BF0837BD4668
:101C2C0080BD80B582B000AF78607868FFF7A2FF06
:101C3C00034618460837BD4680BD000080B48BB003
:101C4C0000AF7860396000237B6200233B6269E15E
:101C5C0001227B6A02FA03F3FB613B681B68FA6999
:101C6C001340BB61BA69FB699A4240F058813B68EA
:101C7C005B689A4A93425ED0984A934275D8984AC8
:101C8C00934258D0964A93426FD8964A934252D078
:101C9C00944A934269D8944A93424CD0924A9342C4
:101CAC0063D8924A934246D0904A93425DD8122B05
:101CBC002AD8122B59D801A252F823F0431D000840
:101CCC001D1D00082F1D0008711D0008771D000840
:101CDC00771D0008771D0008771D0008771D000888
:101CEC00771D0008771D0008771D0008771D000878
:101CFC00771D0008771D0008771D0008771D000868
:101D0C00251D0008391D0008794A934213D02CE098
:101D1C003B68DB683B6229E03B68DB6804333B6271
:101D2C0024E03B68DB6808333B621FE03B68DB6800
:101D3C000C333B621AE03B689B68002B02D10423F6
:101D4C003B6213E03B689B68012B05D108233B6287
:101D5C007B68FA691A6109E008233B627B68FA69BF
:101D6C005A6103E000233B6200E000BFBB69FF2B1C
:101D7C0001D87B6801E07B6804337B61BB69FF2B76
:101D8C0002D87B6A9B0002E07B6A083B9B003B61AC
:101D9C007B691A680F213B6901FA03F3DB431A4094
:101DAC00396A3B6901FA03F31A437B691A603B6891
:101DBC005B6803F08053002B00F0B1804D4B9B69A6
:101DCC004C4A43F0010393614A4B9B6903F00103B6
:101DDC00BB60BB68484A7B6A9B08023352F82330CD
:101DEC00FB607B6A03F003039B000F2202FA03F3F0
:101DFC00DB43FA681340FB607B68404A934213D084
:101E0C007B683F4A93420DD07B683E4A934207D091
:101E1C007B683D4A934201D1032306E0042304E08E
:101E2C00022302E0012300E000237A6A02F003029D
:101E3C0092009340FA681343FB602F497B6A9B081E
:101E4C000233FA6841F823203B685B6803F4801383
:101E5C00002B06D02D4B9A682C49BB6913438B6021
:101E6C0006E02A4B9A68BB69DB43284913408B6018
:101E7C003B685B6803F40013002B06D0234BDA6835
:101E8C002249BB691343CB6006E0204BDA68BB697F
:101E9C00DB431E491340CB603B685B6803F40033A3
:101EAC00002B06D0194B5A681849BB6913434B6079
:101EBC0006E0164B5A68BB69DB43144913404B6070
:101ECC003B685B6803F48033002B21D00F4B1A68FE
:101EDC000E49BB6913430B6021E000BF00003210B8
:101EEC000000311000002210000021100000121020
:101EFC0000001110001002400000014000080140D9
:101F0C00000C01400010014000140140000401408D
:101F1C000B4B1A68BB69DB43094913400B607B6AA6
:101F2C0001337B623B681A687B6A22FA03F3002B4D
:101F3C007FF48EAE00BF00BF2C37BD4680BC70470F
:101F4C000004014080B485B000AF78600B467B8004
:101F5C007B689A687B881340002B02D00123FB73AB
:101F6C0001E00023FB73FB7B18461437BD4680BC95
:101F7C00704780B483B000AF78600B467B8013460B
:101F8C007B707B78002B03D07A887B681A6103E026
:101F9C007B881A047B681A6100BF0C37BD4680BC75
:101FAC00704780B485B000AF78600B467B807B684F
:101FBC00DB68FB607A88FB6813401A04FB68D94322
:101FCC007B880B401A437B681A6100BF1437BD46EF
:101FDC0080BC704780B584B000AF78607B68002B04
:101FEC0001D101232BE17B6893F83D30DBB2002B50
:101FFC0006D17B68002283F83C207868FFF718FA3A
:10200C007B68242283F83D207B681B681A687B68F8
:10201C001B6822F001021A607B681B681A687B68D7
:10202C001B6842F400421A607B681B681A687B6864
:10203C001B6822F400421A6001F032F8F8607B68E9
:10204C005B68814A934207D8FB68804A934294BFED
:10205C0001230023DBB206E0FB687D4A934294BF68
:10206C0001230023DBB2002B01D00123E7E0FB6846
:10207C00784AA2FB03239B0CBB607B681B685B68E4
:10208C0023F03F017B681B68BA680A435A607B687F
:10209C001B681B6A23F03F017B685B686A4A9342AA
:1020AC0002D8BB68013309E0BB684FF4967202FB9F
:1020BC0003F3694AA2FB03239B0901337A68126874
:1020CC000B4313627B681B68DB6923F44F4222F0DD
:1020DC00FF027B685B685C498B4219D8FB68591E10
:1020EC007B685B685B00B1FBF3F3591C40F6FC7337
:1020FC000B40002B0AD0FB68591E7B685B685B00A9
:10210C00B1FBF3F30133C3F30B0351E004234FE0B2
:10211C007B689B68002B11D1FB68581E7B68596843
:10212C000B465B000B44B0FBF3F30133C3F30B031F
:10213C00002B0CBF01230023DBB212E0FB68581EFE
:10214C007B6859680B469B000B4499000B44B0FB11
:10215C00F3F30133C3F30B03002B0CBF0123002358
:10216C00DBB2002B01D0012322E07B689B68002BA3
:10217C000ED1FB68581E7B6859680B465B000B44FC
:10218C00B0FBF3F30133C3F30B0343F400430FE051
:10219C00FB68581E7B6859680B469B000B449900E2
:1021AC000B44B0FBF3F30133C3F30B0343F4404391
:1021BC00796809681343CB617B681B681B6823F043
:1021CC00C0017B68DA697B681B6A1A437B681B68F1
:1021DC000A431A607B681B689B6823F4034323F053
:1021EC00FF037A6811697A68D26811437A681268B9
:1021FC000B4393607B681B68DB6823F0FF017B68F3
:10220C005A697B689B691A437B681B680A43DA60CE
:10221C007B681B681A687B681B6842F001021A60B5
:10222C007B6800221A647B68202283F83D207B683F
:10223C0000221A637B68002283F83E200023184694
:10224C001037BD4680BD00BFA08601007F841E00F4
:10225C00FF083D0083DE1B43D34D621080B588B070
:10226C0002AFF8607A601A460B467B8113463B81BD
:10227C00FFF7A8FB7861FB6893F83D30DBB2202BAD
:10228C0040F0E0807B690093192301227049F868C3
:10229C0000F064F90346002B01D00223D3E0FB6865
:1022AC0093F83C30012B01D10223CCE0FB680122D6
:1022BC0083F83C20FB681B681B6803F00103012BAF
:1022CC0007D0FB681B681A68FB681B6842F00102A8
:1022DC001A60FB681B681A68FB681B6822F40062B2
:1022EC001A60FB68212283F83D20FB68102283F8DA
:1022FC003E20FB6800221A64FB687A685A62FB680D
:10230C003A895A85FB685B8D9AB2FB681A85FB6823
:10231C00504ADA6279897B693A6AF86800F09CF86D
:10232C000346002B01D001238DE000233B61FB68A9
:10233C001B685B693B61FB681B689B693B613B6984
:10234C0066E07A69396AF86800F022FA0346002BD5
:10235C000DD0FB681B6C042B07D1FB681B681A683B
:10236C00FB681B6842F400721A6001236BE0FB6887
:10237C005B6A1A78FB681B681A61FB685B6A5A1CFB
:10238C00FB685A62FB685B8D9BB2013B9AB2FB689F
:10239C005A85FB681B8D013B9AB2FB681A85FB685A
:1023AC001B685B6903F00403042B1BD1FB681B8DBA
:1023BC00002B17D0FB685B6A1A78FB681B681A61E4
:1023CC00FB685B6A5A1CFB685A62FB685B8D9BB2AC
:1023DC00013B9AB2FB685A85FB681B8D013B9AB294
:1023EC00FB681A857A69396AF86800F019FA0346AD
:1023FC00002B0DD0FB681B6C042B07D1FB681B68F2
:10240C001A68FB681B6842F400721A6001231AE018
:10241C00FB681B8D002B94D1FB681B681A68FB684A
:10242C001B6842F400721A60FB68202283F83D207E
:10243C00FB68002283F83E20FB68002283F83C20D6
:10244C00002300E0022318461837BD4680BD00BFAC
:10245C00020010000000FFFF80B588B002AFF860EA
:10246C007A603B600B467B81FB68DB6A7B617B6936
:10247C00082B06D07B69012B03D07B6913F5803FB9
:10248C0008D1FB681B681A68FB681B6842F48072F1
:10249C001A600BE0FB681B6B122B07D1FB681B68E7
:1024AC001A68FB681B6842F480721A603B680093E0
:1024BC007B6800224FF00111F86800F04FF80346DA
:1024CC00002B0DD0FB681B681B6803F48073B3F5FD
:1024DC00807F03D1FB684FF400721A64032335E04C
:1024EC00FB681B69B3F5804F08D17B89DBB21A46B8
:1024FC00FB681B6802F0FE021A611BE07B89DB1192
:10250C00DBB203F00603DBB263F00F03DAB2FB6855
:10251C001B681A613B687A680E49F86800F098F8F5
:10252C000346002B01D0012310E07B89DAB2FB6853
:10253C001B681A613B687A680749F86800F088F8EC
:10254C000346002B01D0012300E000231846183766
:10255C00BD4680BD080001000200010080B584B0BA
:10256C0000AFF860B9603B601346FB7148E03B6814
:10257C00B3F1FF3F44D0FFF725FA0246BB69D31AEB
:10258C003A689A4202D33B68002B39D1BB681B0CCA
:10259C00DBB2012B0DD1FB681B685B69DA43BB68AE
:1025AC0013409BB2002B0CBF01230023DBB21A4655
:1025BC000CE0FB681B689B69DA43BB6813409BB259
:1025CC00002B0CBF01230023DBB21A46FB799A4285
:1025DC0016D1FB6800221A63FB68202283F83D2089
:1025EC00FB68002283F83E20FB681B6C43F0200242
:1025FC00FB681A64FB68002283F83C20012323E06B
:10260C00BB681B0CDBB2012B0DD1FB681B685B6933
:10261C00DA43BB6813409BB2002B0CBF0123002391
:10262C00DBB21A460CE0FB681B689B69DA43BB689B
:10263C0013409BB2002B0CBF01230023DBB21A46C4
:10264C00FB799A4293D0002318461037BD4680BDC3
:10265C0080B584B000AFF860B9607A603B6071E01F
:10266C00FB681B685B6903F48063B3F5806F23D14F
:10267C00FB681B681A68FB681B6842F400721A60DE
:10268C00FB681B686FF480625A61FB6800221A6356
:10269C00FB68202283F83D20FB68002283F83E2053
:1026AC00FB681B6C43F00402FB681A64FB68002295
:1026BC0083F83C20012367E07B68B3F1FF3F41D0F6
:1026CC00FFF780F902463B68D31A7A689A4202D324
:1026DC007B68002B36D1BB681B0CDBB2012B0CD1F9
:1026EC00FB681B685B69DA43BB6813409BB2002B29
:1026FC0014BF01230023DBB20BE0FB681B689B6952
:10270C00DA43BB6813409BB2002B14BF0123002398
:10271C00DBB2002B16D0FB6800221A63FB68202268
:10272C0083F83D20FB68002283F83E20FB681B6C7D
:10273C0043F02002FB681A64FB68002283F83C20FB
:10274C00012321E0BB681B0CDBB2012B0CD1FB6815
:10275C001B685B69DA43BB6813409BB2002B14BF48
:10276C0001230023DBB20BE0FB681B689B69DA4397
:10277C00BB6813409BB2002B14BF01230023DBB2B8
:10278C00002B7FF46DAF002318461037BD4680BD7B
:10279C0080B584B000AFF860B9607A6034E0F86856
:1027AC0000F086F80346002B01D0012334E0BB680F
:1027BC00B3F1FF3F28D0FFF705F902467B68D31A27
:1027CC00BA689A4202D3BB68002B1DD1FB681B6808
:1027DC005B6903F08003802B16D0FB6800221A6320
:1027EC00FB68202283F83D20FB68002283F83E2002
:1027FC00FB681B6C43F02002FB681A64FB68002228
:10280C0083F83C20012307E0FB681B685B6903F03D
:10281C008003802BC3D1002318461037BD4680BDE2
:10282C0080B584B000AFF860B9607A6034E0F868C5
:10283C0000F03EF80346002B01D0012334E0BB68C6
:10284C00B3F1FF3F28D0FFF7BDF802467B68D31ADF
:10285C00BA689A4202D3BB68002B1DD1FB681B6877
:10286C005B6903F00403042B16D0FB6800221A6387
:10287C00FB68202283F83D20FB68002283F83E2071
:10288C00FB681B6C43F02002FB681A64FB68002297
:10289C0083F83C20012307E0FB681B685B6903F0AD
:1028AC000403042BC3D1002318461037BD4680BD4A
:1028BC0080B483B000AF78607B681B685B6903F4FD
:1028CC008063B3F5806F1BD17B681B686FF48062EB
:1028DC005A617B6800221A637B68202283F83D20B2
:1028EC007B68002283F83E207B681B6C43F004025B
:1028FC007B681A647B68002283F83C20012300E08B
:10290C00002318460C37BD4680BC704780B586B096
:10291C0000AF78607B68002B01D1012372E27B68E9
:10292C001B6803F00103002B00F08780924B5B685F
:10293C0003F00C03042B0CD08F4B5B6803F00C03DF
:10294C00082B12D18C4B5B6803F48033B3F5803FBA
:10295C000BD1894B1B6803F40033002B6CD07B68C4
:10296C005B68002B68D101234CE27B685B68B3F594
:10297C00803F06D1804B1B687F4A43F48033136041
:10298C002EE07B685B68002B0CD17B4B1B687A4A72
:10299C0023F480331360784B1B68774A23F480232D
:1029AC0013601DE07B685B68B3F5A02F0CD1724BF4
:1029BC001B68714A43F4802313606F4B1B686E4A8B
:1029CC0043F4803313600BE06B4B1B686A4A23F4AF
:1029DC0080331360684B1B68674A23F480231360B1
:1029EC007B685B68002B13D0FEF7ECFF386108E0C6
:1029FC00FEF7E8FF02463B69D31A642B01D9032387
:102A0C0000E25D4B1B6803F40033002BF0D014E0A4
:102A1C00FEF7D8FF386108E0FEF7D4FF02463B69A9
:102A2C00D31A642B01D90323ECE1534B1B6803F439
:102A3C000033002BF0D100E000BF7B681B6803F073
:102A4C000203002B63D04C4B5B6803F00C03002B90
:102A5C000BD0494B5B6803F00C03082B1CD1464B85
:102A6C005B6803F48033002B16D1434B1B6803F0D7
:102A7C000203002B05D07B681B69012B01D00123BD
:102A8C00C0E13D4B1B6823F0F8027B685B69DB00FF
:102A9C00394913430B603AE07B681B69002B20D04B
:102AAC00364B01221A60FEF78DFF386108E0FEF705
:102ABC0089FF02463B69D31A022B01D90323A1E1FA
:102ACC002D4B1B6803F00203002BF0D02A4B1B6824
:102ADC0023F0F8027B685B69DB00274913430B602A
:102AEC0015E0264B00221A60FEF76CFF386108E0F7
:102AFC00FEF768FF02463B69D31A022B01D9032368
:102B0C0080E11D4B1B6803F00203002BF0D17B68A6
:102B1C001B6803F00803002B3AD07B689B69002BE1
:102B2C0019D0174B01221A60FEF74CFF386108E0F0
:102B3C00FEF748FF02463B69D31A022B01D9032347
:102B4C0060E10D4B5B6A03F00203002BF0D0012017
:102B5C0000F0BAFA1CE00A4B00221A60FEF732FFB2
:102B6C0038610FE0FEF72EFF02463B69D31A022BA9
:102B7C0008D9032346E100BF001002400000424286
:102B8C0080044242924B5B6A03F00203002BE9D1B2
:102B9C007B681B6803F00403002B00F0A680002365
:102BAC00FB758B4BDB6903F08053002B0DD1884BED
:102BBC00DB69874A43F08053D361854BDB6903F0B3
:102BCC008053BB60BB680123FB75824B1B6803F40D
:102BDC008073002B18D17F4B1B687E4A43F48073A3
:102BEC001360FEF7EFFE386108E0FEF7EBFE0246DD
:102BFC003B69D31A642B01D9032303E1754B1B6882
:102C0C0003F48073002BF0D07B68DB68012B06D1BA
:102C1C006F4B1B6A6E4A43F0010313622DE07B6815
:102C2C00DB68002B0CD16A4B1B6A694A23F0010349
:102C3C001362674B1B6A664A23F0040313621CE0A1
:102C4C007B68DB68052B0CD1614B1B6A604A43F037
:102C5C00040313625E4B1B6A5D4A43F0010313626B
:102C6C000BE05B4B1B6A5A4A23F001031362584B6F
:102C7C001B6A574A23F0040313627B68DB68002B42
:102C8C0015D0FEF79FFE38610AE0FEF79BFE024668
:102C9C003B69D31A41F28832934201D90323B1E044
:102CAC004B4B1B6A03F00203002BEED014E0FEF733
:102CBC0089FE38610AE0FEF785FE02463B69D31AAD
:102CCC0041F28832934201D903239BE0404B1B6AAB
:102CDC0003F00203002BEED1FB7D012B05D13C4B05
:102CEC00DB693B4A23F08053D3617B68DB69002BA3
:102CFC0000F08780364B5B6803F00C03082B61D027
:102D0C007B68DB69022B46D1334B00221A60FEF73D
:102D1C0059FE386108E0FEF755FE02463B69D31AAE
:102D2C00022B01D903236DE0294B1B6803F00073C0
:102D3C00002BF0D17B681B6AB3F5803F08D1244B84
:102D4C005B6823F400327B689B68214913434B601A
:102D5C001F4B5B6823F474127B68196A7B685B6A8F
:102D6C000B431B4913434B601B4B01221A60FEF7AC
:102D7C0029FE386108E0FEF725FE02463B69D31AAE
:102D8C00022B01D903233DE0114B1B6803F00073A8
:102D9C00002BF0D035E0104B00221A60FEF712FE2B
:102DAC00386108E0FEF70EFE02463B69D31A022B8F
:102DBC0001D9032326E0064B1B6803F00073002B9C
:102DCC00F0D11EE07B68DB69012B07D1012319E0F0
:102DDC000010024000700040600042420B4B5B68E8
:102DEC00FB60FB6803F480327B681B6A9A4206D155
:102DFC00FB6803F470127B685B6A9A4201D0012372
:102E0C0000E0002318461837BD4680BD0010024074
:102E1C0080B584B000AF786039607B68002B01D13D
:102E2C000123D0E06A4B1B6803F007033A689A420F
:102E3C0010D9674B1B6823F0070265493B681343A5
:102E4C000B60634B1B6803F007033A689A4201D08E
:102E5C000123B8E07B681B6803F00203002B20D031
:102E6C007B681B6803F00403002B05D0594B5B688F
:102E7C00584A43F4E06353607B681B6803F0080313
:102E8C00002B05D0534B5B68524A43F4605353609C
:102E9C00504B5B6823F0F0027B689B684D491343F1
:102EAC004B607B681B6803F00103002B40D07B68F0
:102EBC005B68012B07D1474B1B6803F40033002BD5
:102ECC0015D101237FE07B685B68022B07D1414B56
:102EDC001B6803F00073002B09D1012373E03D4BF9
:102EEC001B6803F00203002B01D101236BE0394B6B
:102EFC005B6823F003027B685B68364913434B60C5
:102F0C00FEF760FDF8600AE0FEF75CFD0246FB6828
:102F1C00D31A41F28832934201D9032353E02D4B4B
:102F2C005B6803F00C027B685B689B009A42EBD1F8
:102F3C00274B1B6803F007033A689A4210D2244BC4
:102F4C001B6823F0070222493B6813430B60204B9C
:102F5C001B6803F007033A689A4201D0012332E060
:102F6C007B681B6803F00403002B08D0194B5B68CB
:102F7C0023F4E0627B68DB68164913434B607B6883
:102F8C001B6803F00803002B09D0124B5B6823F479
:102F9C0060527B681B69DB000E4913434B6000F0E9
:102FAC0021F802460B4B5B681B0903F00F030A491F
:102FBC00CB5C22FA03F3094A1360094B1B681846D1
:102FCC00FEF7BEFC002318461037BD4680BD00BF7F
:102FDC000020024000100240184300082C00002082
:102FEC003000002080B487B000AF0023FB600023CA
:102FFC00BB6000237B6100237B6000233B611E4B85
:10300C005B68FB60FB6803F00C03042B02D0082BFD
:10301C0003D027E0194B3B6127E0FB689B0C03F0C6
:10302C000F03174AD35C7B60FB6803F48033002BDF
:10303C0010D0114B5B685B0C03F00103114AD35C9D
:10304C00BB607B680D4A03FB02F2BB68B2FBF3F377
:10305C007B6104E07B680C4A02FB03F37B617B69B8
:10306C003B6102E0054B3B6100BF3B6918461C37D6
:10307C00BD4680BC704700BF0010024000127A00B1
:10308C00304300084043000800093D0080B400AF05
:10309C00024B1B681846BD4680BC70472C000020B4
:1030AC0080B500AFFFF7F2FF0246054B5B681B0AC9
:1030BC0003F007030349CB5C22FA03F3184680BDE7
:1030CC00001002402843000880B485B000AF78603F
:1030DC000A4B1B680A4AA2FB03235B0A7A6802FBB1
:1030EC0003F3FB6000BFFB685A1EFA60002BF9D19A
:1030FC0000BF00BF1437BD4680BC70472C000020B9
:10310C00D34D621080B582B000AF78607B68002B25
:10311C0001D1012341E07B6893F83D30DBB2002BF9
:10312C0006D17B68002283F83C207868FEF7D0F942
:10313C007B68022283F83D207B681A687B68043325
:10314C001946104600F05CFA7B68012283F8462091
:10315C007B68012283F83E207B68012283F83F20A4
:10316C007B68012283F840207B68012283F8412090
:10317C007B68012283F842207B68012283F843207C
:10318C007B68012283F844207B68012283F8452068
:10319C007B68012283F83D20002318460837BD4682
:1031AC0080BD000080B485B000AF78607B6893F878
:1031BC003D30DBB2012B01D001233AE07B680222C7
:1031CC0083F83D207B681B68DA687B681B6842F0DB
:1031DC000102DA607B681B68184A93420ED07B6848
:1031EC001B68B3F1804F09D07B681B68144A93426B
:1031FC0004D07B681B68134A934211D17B681B680F
:10320C009B6803F00703FB60FB68062B10D07B6800
:10321C001B681A687B681B6842F001021A6007E0A1
:10322C007B681B681A687B681B6842F001021A6095
:10323C00002318461437BD4680BC7047002C014053
:10324C00000400400008004080B584B000AF7860F6
:10325C007B681B68DB68FB607B681B681B69BB6059
:10326C00BB6803F00203002B20D0FB6803F00203C1
:10327C00002B1BD07B681B686FF002021A617B6805
:10328C0001221A777B681B689B6903F00303002BF0
:10329C0003D0786800F098F905E0786800F08BF9B5
:1032AC00786800F09AF97B6800221A77BB6803F003
:1032BC000403002B20D0FB6803F00403002B1BD06D
:1032CC007B681B686FF004021A617B6802221A7714
:1032DC007B681B689B6903F44073002B03D07868F0
:1032EC0000F072F905E0786800F065F9786800F094
:1032FC0074F97B6800221A77BB6803F00803002B73
:10330C0020D0FB6803F00803002B1BD07B681B68E4
:10331C006FF008021A617B6804221A777B681B68BD
:10332C00DB6903F00303002B03D0786800F04CF941
:10333C0005E0786800F03FF9786800F04EF97B689A
:10334C0000221A77BB6803F01003002B20D0FB6817
:10335C0003F01003002B1BD07B681B686FF010026E
:10336C001A617B6808221A777B681B68DB6903F497
:10337C004073002B03D0786800F026F905E07868DC
:10338C0000F019F9786800F028F97B6800221A77A8
:10339C00BB6803F00103002B0CD0FB6803F00103A6
:1033AC00002B07D07B681B686FF001021A617868EC
:1033BC00FDF7F8FFBB6803F08003002B0CD0FB6813
:1033CC0003F08003002B07D07B681B686FF0800232
:1033DC001A61786800F07FFABB6803F04003002B99
:1033EC000CD0FB6803F04003002B07D07B681B68F4
:1033FC006FF040021A61786800F0F8F8BB6803F0CF
:10340C002003002B0CD0FB6803F02003002B07D00B
:10341C007B681B686FF020021A61786800F052FA22
:10342C0000BF1037BD4680BD80B584B000AF78605A
:10343C0039600023FB737B6893F83C30012B01D17E
:10344C000223B4E07B68012283F83C207B680222D3
:10345C0083F83D207B681B689B68BB60BB6823F0CE
:10346C007703BB60BB6823F47F43BB607B681B683E
:10347C00BA689A603B681B68B3F5005F3ED0B3F541
:10348C00005F00F28780B3F5805F00F08680B3F5B3
:10349C00805F7FD8702B1AD0702B7BD8602B50D0CC
:1034AC00602B77D8502B3CD0502B73D8402B58D056
:1034BC00402B6FD8302B64D0302B6BD8202B60D0A6
:1034CC00202B67D8002B5CD0102B5AD062E07B6885
:1034DC0018683B6899683B685A683B68DB6800F081
:1034EC0074F97B681B689B68BB60BB6843F077030F
:1034FC00BB607B681B68BA689A604FE07B68186891
:10350C003B6899683B685A683B68DB6800F05DF97A
:10351C007B681B689A687B681B6842F480429A60DF
:10352C003CE07B6818683B6859683B68DB681A4666
:10353C0000F0D4F87B681B685021184600F02BF97A
:10354C002CE07B6818683B6859683B68DB681A4656
:10355C0000F0F2F87B681B686021184600F01BF93C
:10356C001CE07B6818683B6859683B68DB681A4646
:10357C0000F0B4F87B681B684021184600F00BF98A
:10358C000CE07B681A683B681B681946104600F013
:10359C0002F903E00123FB7300E000BF7B6801220A
:1035AC0083F83D207B68002283F83C20FB7B184687
:1035BC001037BD4680BD80B483B000AF786000BFCB
:1035CC000C37BD4680BC704780B483B000AF7860C8
:1035DC0000BF0C37BD4680BC704780B483B000AFD1
:1035EC00786000BF0C37BD4680BC704780B483B098
:1035FC0000AF786000BF0C37BD4680BC7047000040
:10360C0080B485B000AF786039607B681B68FB6064
:10361C007B682F4A93420BD07B68B3F1804F07D065
:10362C007B682C4A934203D07B682B4A934208D187
:10363C00FB6823F07003FB603B685B68FA6813431C
:10364C00FB607B68224A93420BD07B68B3F1804FBE
:10365C0007D07B681F4A934203D07B681E4A934273
:10366C0008D1FB6823F44073FB603B68DB68FA68A5
:10367C001343FB60FB6823F080023B685B691343D8
:10368C00FB607B68FA681A603B689A687B68DA6250
:10369C003B681A687B689A627B680D4A934203D137
:1036AC003B681A697B681A637B6801225A617B68E4
:1036BC001B6903F00103002B05D07B681B6923F009
:1036CC0001027B681A6100BF1437BD4680BC70478D
:1036DC00002C0140000400400008004080B487B07A
:1036EC0000AFF860B9607A60FB681B6A7B61FB68AD
:1036FC001B6A23F00102FB681A62FB689B693B6141
:10370C003B6923F0F0033B617B681B013A6913436F
:10371C003B617B6923F00A037B617A69BB681343C5
:10372C007B61FB683A699A61FB687A691A6200BF2F
:10373C001C37BD4680BC704780B487B000AFF860C2
:10374C00B9607A60FB681B6A7B61FB681B6A23F0BB
:10375C001002FB681A62FB689B693B613B6923F4AE
:10376C0070433B617B681B033A6913433B617B6984
:10377C0023F0A0037B61BB681B017A6913437B6157
:10378C00FB683A699A61FB687A691A6200BF1C3758
:10379C00BD4680BC704780B485B000AF786039609E
:1037AC007B689B68FB60FB6823F07003FB603A68E6
:1037BC00FB68134343F00703FB607B68FA689A606D
:1037CC0000BF1437BD4680BC704780B487B000AFD3
:1037DC00F860B9607A603B60FB689B687B617B69D1
:1037EC0023F47F437B613B681A027B681A43BB68F6
:1037FC0013437A6913437B61FB687A699A6000BF53
:10380C001C37BD4680BC704780B485B000AF786073
:10381C0039607B6893F83C30012B01D1022346E0E0
:10382C007B68012283F83C207B68022283F83D20D0
:10383C007B681B685B68FB607B681B689B68BB6074
:10384C00FB6823F07003FB603B681B68FA6813434A
:10385C00FB607B681B68FA685A607B681B68164AB9
:10386C0093420ED07B681B68B3F1804F09D07B6804
:10387C001B68124A934204D07B681B68104A93421F
:10388C000CD1BB6823F08003BB603B685B68BA68F3
:10389C001343BB607B681B68BA689A607B68012223
:1038AC0083F83D207B68002283F83C2000231846D7
:1038BC001437BD4680BC7047002C0140000400400A
:1038CC000008004080B483B000AF786000BF0C37B4
:1038DC00BD4680BC704780B483B000AF786000BF39
:1038EC000C37BD4680BC7047024B0146186800F08F
:1038FC002DB800BF38000020024B0146186800F0BC
:10390C0015B900BF3800002070B50F4E0C46316859
:10391C00054611B900F0CEF830602146284600F07B
:10392C00C9F8431C03D14FF0FF34204670BDC41CB2
:10393C0024F00304A042F8D0211A284600F0BAF86B
:10394C000130F2D1EFE700BF200200202DE9F8434F
:10395C00CD1C25F0030508350C2D38BF0C25002D8A
:10396C00064601DBA94204D90C2333600020BDE8D4
:10397C00F883DFF8D48000F069F8D8F800301C46E2
:10398C0044BB29463046FFF7BFFF431C044658D1C1
:10399C00D8F800402746002F43D1002C4BD0236889
:1039AC003946304604EB030900F084F8814542D1D6
:1039BC00216830466D1A2946FFF7A6FF01303AD030
:1039CC0023682B442360D8F800305A6862BBC8F8CF
:1039DC0000700FE02268521B20D40B2A17D96119F2
:1039EC00A342256018BF5960636808BFC8F800106F
:1039FC0062514B60304600F02FF804F10B00231D90
:103A0C0020F00700C21A1CBF1B1AA350AFE7626854
:103A1C00A3420CBFC8F800205A60EBE72346646849
:103A2C00AEE73C467F68B6E71A465B68A342FBD11B
:103A3C0000235360DEE70C233046336000F00CF8B3
:103A4C0094E70560D6E700BF24020020014800F08F
:103A5C006BB800BF64030020014800F066B800BFDB
:103A6C00640300200EB46FF0004100B59CB01DAB98
:103A7C0002900690079104910848094953F8042BC9
:103A8C000591006802A9019300F0F4F80022029B52
:103A9C001A701CB05DF804EB03B0704738000020BE
:103AAC000802FFFF03460244934200D1704703F81B
:103ABC00011BF9E738B50023054D044608462B6079
:103ACC00FDF760FD431C02D12B6803B1236038BDA8
:103ADC0060030020014B1868704700BF38000020BD
:103AEC0070B500260C4D0D4C641BA410A64209D1D8
:103AFC0000F0BAFB00260A4D0A4C641BA410A64227
:103B0C0005D170BD55F8043B98470136EEE755F8E2
:103B1C00043B98470136F2E77843000878430008E5
:103B2C00784300087C4300087047704738B5054659
:103B3C00002940D051F8043C0C1F002BB8BFE418EE
:103B4C00FFF784FF1C4A136833B96360146028467E
:103B5C00BDE83840FFF780BFA34208D92068211880
:103B6C008B4201BF19685B6809182160EDE71A46A2
:103B7C005B680BB1A342FAD911685018A0420BD163
:103B8C0020680144501883421160E0D118685B68CA
:103B9C00084410605360DAE702D90C232B60D6E797
:103BAC00206821188B4201BF19685B6809182160D5
:103BBC0063605460CBE738BD240200202DE9F04748
:103BCC001F468E688246BE420C4690460B682DD826
:103BDC00B1F90C2012F4906F26D06569096905EBD8
:103BEC004505A3EB010905EBD5757B1C4B446D100A
:103BFC009D4238BF1D46530527D52946FFF7A6FE23
:103C0C00064660B34A46216900F0EAFAA38923F418
:103C1C00906343F08003A38126614E4426603E46A8
:103C2C006561A5EB0905A560BE4200D93E4632464A
:103C3C004146206800F0ACFA0020A3689B1BA360EF
:103C4C00236833442360BDE8F0872A4600F0D6FA97
:103C5C0006460028E0D150462169FFF767FF0C2388
:103C6C00CAF80030A3894FF0FF3043F04003A38122
:103C7C00E9E700002DE9F04F98468B8907461B06B3
:103C8C000D4614469DB010D50B6973B94021FFF752
:103C9C005DFE2860286130B90C233B604FF0FF308B
:103CAC001DB0BDE8F08F40236B61002309932023E6
:103CBC008DF8293030234FF00109CDF80C80DFF856
:103CCC0098818DF82A3023469A4613F8012B0AB1B5
:103CDC00252AF9D1BAEB040B0BD05B4622462946B8
:103CEC003846FFF76BFF013000F0A780099A5A4461
:103CFC0009929AF80030002B00F09F8000234FF0BF
:103D0C00FF32CDE905230AF1010A049307938DF8DC
:103D1C0053301A935446052214F8011B4E4800F0F8
:103D2C0051FA049AD8B9D00644BF20238DF85330E9
:103D3C00110744BF2B238DF853309AF800302A2BEF
:103D4C0015D0544600204FF00A0C079A214611F862
:103D5C00013B303B092B4BD9B0B1079214E0A0EBDF
:103D6C00080309FA03F31343A2460493D2E7039B17
:103D7C00191D1B680391002BBBBF5B4242F0020272
:103D8C0007930793B8BF049223782E2B0AD163783C
:103D9C002A2B32D1039B02341A1D1B68039243EA6F
:103DAC00E3730593DFF8B4A003225046217800F0AA
:103DBC0009FA38B14022049BA0EB0A00824013435D
:103DCC000134049314F8011B062225488DF82810A1
:103DDC0000F0F8F9002836D0224B1BBB039B0733AD
:103DEC0023F0070308330393099B334409936AE7D1
:103DFC000C4601200CFB0232A8E700234FF00A0C02
:103E0C00194601340593204610F8012B303A092A43
:103E1C0003D9002BC6D00591C4E7044601230CFB43
:103E2C000121F0E703AB00932A4638460E4B04A958
:103E3C00AFF30080421C0646D6D1AB895B063FF53A
:103E4C002DAF09982CE703AB00932A463846064B56
:103E5C0004A900F07DF8EDE7424300084843000850
:103E6C004C43000800000000C93B00082DE9F04756
:103E7C00164698468A680B6907469342B8BF1346A4
:103E8C00336091F843200C46DDF820900AB10133E1
:103E9C0033602368990642BF336802333360256868
:103EAC0015F0060506D104F1190AE36832689B1A6D
:103EBC00AB422BDC94F843302268003B18BF012343
:103ECC00920630D44146384604F14302C8470130CB
:103EDC0023D02368226903F00603042B14BF0025AA
:103EEC0033684FF0000608BFE56804F11A0408BFF8
:103EFC00ED1A54F8123C08BF25EAE5759342C4BF8D
:103F0C009B1AED18B5421AD1002008E00123524645
:103F1C0041463846C847013003D14FF0FF30BDE869
:103F2C00F0870135C1E73020E11881F843005A1CB5
:103F3C0094F845102244023382F84310C2E701235F
:103F4C00224641463846C8470130E6D00136D9E70B
:103F5C002DE9FF470F7E9146782F80460C469A46F6
:103F6C000C9E01F1430207D8622F0AD8002F00F0F3
:103F7C00D380582F00F0BA8004F1420684F84270C6
:103F8C003AE0A7F16303152BF6D801A151F823F001
:103F9C00F53F000809400008853F0008853F0008F0
:103FAC00853F0008853F000809400008853F000850
:103FBC00853F0008853F0008853F00080B4100083D
:103FCC0033400008C5400008853F0008853F0008C5
:103FDC002D410008853F000833400008853F00084C
:103FEC00853F0008CD40000833681A1D1B683260FD
:103FFC0004F1420684F8423001239EE033682068C5
:10400C00191D3160060601D51D6803E04506FBD578
:10401C00B3F90050002D03DA2D236D4284F84330A0
:10402C000A23594811E021683368080653F8045BE9
:10403C0002D4490648BFADB26F2F336014BF0A23B8
:10404C0008235148002184F843106668002EA8BF4D
:10405C002168A660A4BF21F0040121600DB9002ED7
:10406C004BD01646B5FBF3F103FB1157C75D06F8B1
:10407C00017D2F46BB420D46F4D9082B0BD123688A
:10408C00DF0708D5236961689942DEBF302306F843
:10409C00013C06F1FF36921B22614B4621464046FD
:1040AC00CDF800A003AAFFF7E1FE01304AD14FF092
:1040BC00FF3004B0BDE8F087236843F02003236091
:1040CC007827324884F84570236831681F0651F808
:1040DC00045B02D45F0648BFADB23160D90744BF60
:1040EC0043F0200323601DB11023ABE72648E9E71A
:1040FC00236823F020032360F6E71646BDE73368F8
:10410C002568181D616930602E061B6801D5196081
:10411C0002E06806FBD51980002316462361BCE734
:10412C00336800211A1D32601E686268304600F048
:10413C0049F808B1801B606063682361002384F830
:10414C004330AAE73246494640462369D0470130FE
:10415C00ADD023689B0713D4E068039B9842B8BF8B
:10416C001846A6E70123324649464046D04701305F
:10417C009DD00135E36803995B1AAB42F2DCEBE7A7
:10418C00002504F11906F5E75343000864430008C1
:10419C00884210B501EB020402D98442234607D8A9
:1041AC00431EA14208D011F8012B03F8012FF8E7A8
:1041BC00014602448A4200D110BD13F8014D02F8A9
:1041CC00014DF7E7034610B5C9B2024493421846B5
:1041DC0001D1002003E0047801338C42F6D110BDEC
:1041EC000A44914200F1FF3300D1704710B511F829
:1041FC00014B914203F8014FF9D110BD2DE9F0416B
:10420C00804615460C4621B91146BDE8F041FFF732
:10421C009DBB2AB9FFF78AFC00242046BDE8F0813B
:10422C0000F01AF88542064602D8B5EB500FF4D8C8
:10423C0029464046FFF78AFB07460028ECD0B542DA
:10424C002A46214628BF3246FFF7CAFF2146404680
:10425C00FFF76CFC3C46E0E751F8043C181F002BC0
:10426C00BCBF0B58C0187047F8B500BFF8BC08BCF1
:10427C009E467047F8B500BFF8BC08BC9E46704718
:10428C0020204D414E55414C202020002043757379
:10429C00746F6D65727320004D6F646500000000D3
:1042AC0031000000743A2025647320202020202047
:1042BC002000000032000000524544202020202025
:1042CC00202000003300000059454C4C4F57202053
:1042DC002000000034000000475245454E202020AD
:1042EC0020000000475245454E3A2020256420000E
:1042FC005245443A20202020256420003000000044
:10430C0059454C4C4F573A202564200000000000C2
:10431C000000000001020304060708090000000069
:10432C000102030402030405060708090A0B0C0D1D
:10433C000E0F10100102232D302B2000686C4C0046
:10434C006566674546470030313233343536373889
:10435C0039414243444546003031323334353637E7
:0C436C003839616263646566000000007F
:044378003101000807
:04437C000D01000827
:1043800005000200030000000008014000010000D9
:104390000008014000020000000C0140080000007D
:1043A000000C0140200000000A00000000127A000A
:1043B00010000000010000003C0000200000000090
:1043C0002802002090020020F802002000000000D7
:1043D00000000000000000000000000000000000DD
:1043E00000000000000000000000000000000000CD
:1043F00000000000000000000000000000000000BD
:084400000000000000000000B4
:04000005080018D502
:00000001FF
